:0400000007EF00F016
:0A00080001820BED06F086EF05F013
:1008000000005004D8A407EF04F009EF04F02DEF26
:1008100004F04F50D96EDA6A060ED926DF50000177
:10082000606F010E616F602B18EF04F0D890613794
:10083000602F16EF04F04F50D96EDA6A040ED926F5
:10084000DECF62F0DDCF63F062C0D9FF63C0DAFFB4
:1008500000016151DF1252EF04F04F50D96EDA6A95
:10086000060ED926DF500001606F010E616F602B0C
:100870003CEF04F0D8906137602F3AEF04F00001AC
:100880006151FF0A626F4F50D96EDA6A040ED926A1
:10089000DECF63F0DDCF64F063C0D9FF64C0DAFF60
:1008A0006251DF1612005004D8A459EF04F05BEF38
:1008B00004F07FEF04F04F50D96EDA6A060ED926A5
:1008C000DF500001606F010E616F602B6AEF04F072
:1008D000D8906137602F68EF04F04F50D96EDA6A14
:1008E000020ED926DECF62F0DDCF63F062C0D9FF01
:1008F00063C0DAFF00016151DF12A4EF04F04F5032
:10090000D96EDA6A060ED926DF500001606F010E3B
:10091000616F602B8EEF04F0D8906137602F8CEF01
:1009200004F000016151FF0A626F4F50D96EDA6A1C
:10093000020ED926DECF63F0DDCF64F063C0D9FFAD
:1009400064C0DAFF6251DF161200486AD9EF04F082
:100950004850070DF350060FD96EDA6ADE2A000EF2
:10096000DD224850070DF350040FD96EDA6A485063
:10097000070DF350060FE16EE26ADE50E65CDE50D2
:10098000E658D8A0C6EF04F0C8EF04F0D8EF04F0A2
:100990004850070DF350060FD96EDA6ADE6ADD6A39
:1009A0004850070DF350080FD96EDA6A010EDF6E5A
:1009B000482A2550485CD8A0E0EF04F0E2EF04F0AC
:1009C000A8EF04F012000001686B10EF05F0685109
:1009D000070DF350080FD96EDA6ADE04D8A4F3EFDE
:1009E00004F0F5EF04F00EEF05F06851070DF35039
:1009F000080FD96EDA6ADF6A6851070DF350020FEB
:100A0000D96EDA6A02D80EEF05F00500FA6EDE50F4
:100A1000FD6EDE50FE6EFF6AFA5012000001682B78
:100A20002550685DD8A017EF05F019EF05F0E7EF46
:100A300004F01200410E0001656F32EC06F03E0E2C
:100A40000001656F32EC06F03B0E0001656F32EC81
:100A500006F0260E4F6E010E506E53EC04F0E0ECE3
:100A600005F07AEC06F0A4EC06F0A1EC06F00E0E10
:100A70004F6E0D0E506E010E526EF40E516EB3ECB1
:100A800005F01A0E4F6E0D0E506E526AC80E516E62
:100A9000B3EC05F0E3EC04F04AEF05F007EF00F0EB
:100AA0005150D96EDA6A020ED92652C0DFFF51507A
:100AB000D96EDA6A010ED926DE04D8A462EF05F0F9
:100AC00064EF05F071EF05F05204D8B46AEF05F059
:100AD0006DEF05F0010E6EEF05F0000E546E7CEF29
:100AE00005F05204D8A477EF05F07AEF05F0010E77
:100AF0007BEF05F0000E546E5150D96EDA6ADF506C
:100B00004F6E54C050F001EC04F012003A0EF66E35
:100B10000D0EF76E000EF86E00EE69F010EE07F0A5
:100B20000900F5CFEEFFE550E150FAE1D60EF66E82
:100B30000C0EF76E000EF86E00EE26F010EE1EF0B2
:100B40000900F5CFEEFFE550E150FAE100EE02F0CA
:100B5000240EEE6AE806FDE101900192000EF86EA7
:100B600000011AEF05F0050E2560B9EF05F0BBEFA7
:100B700005F0DEEF05F02550070DF350020FD96E9A
:100B8000DA6A4FC0DEFF50C0DDFF2550070DF3507D
:100B9000040FD96EDA6A51C0DEFF52C0DDFF255066
:100BA000070DF350060FD96EDA6ADE6ADD6A25504A
:100BB000070DF350080FD96EDA6ADF6A252A120092
:100BC0004F6A4F50070DF350020FD96EDA6ADE6A92
:100BD000DD6A4F50070DF350040FD96EDA6ADE6AF2
:100BE000DD6A4F50070DF350060FD96EDA6ADE6AE0
:100BF000DD6A4F50070DF350080FD96EDA6ADF6ACD
:100C00004F2A040E4F6407EF06F009EF06F0E1EFFC
:100C100005F0256A12000600E1CF49F0E2CF4AF064
:100C2000D9CF4BF0DACF4CF0F3CF4DF0F4CF4EF0FC
:100C3000F2A41DEF06F01FEF06F024EF06F098EC8B
:100C400006F0A5EC04F0F2944EC0F4FF4DC0F3FFA3
:100C50004CC0DAFF4BC0D9FF4AC0E2FF49C0E1FFF8
:100C60000192110000016551D96EDA6ADF504F6EB2
:100C7000000E506E53EC04F000016551D96EDA6A33
:100C8000020ED926DF6A65C051F06551D96EDA6A65
:100C9000020ED926DF50526E50EC05F01200000112
:100CA0006551D96EDA6A020ED926DF50666F660585
:100CB000D8A45DEF06F05FEF06F062EF06F0666B1A
:100CC00064EF06F0010E666F65C051F066C052F029
:100CD00050EC05F01200810F930F8A0F00830F95DF
:100CE0000F8C0F01830F950F8C0F006901002D00F1
:100CF00000340100D56AD59CD59AD596D550F80B0D
:100D00000109D56E93EC06F0F294F28A1200410EBE
:100D10000001656F4FEC06F012003B0E0001656F9D
:100D20004FEC06F01200FB0ED76E1E0ED66E1200B0
:100D3000FB0ED76E1E0ED66E1200830F950F8C0F12
:010D400002B0
:0A0D4200F28EF28C1200D58E120022
:020000040030CA
:08000000000C1E1EFF8181FFB0
:00000001FF
