:0400000007EF00F016
:0A000800018277ED07F098EF06F093
:1008000000004A50D96EDA6A010ED926DE04D8A457
:100810000CEF04F00EEF04F023EF04F04A50D96E11
:10082000DA6ADF50446EF2EC06F0E806D8B41BEF4B
:1008300004F01EEF04F0010E1FEF04F0000E0001A3
:10084000626F36EF04F04A50D96EDA6ADF50446EB8
:10085000F2EC06F0E806D8A430EF04F033EF04F031
:10086000010E34EF04F0000E0001626F4A50D96EA1
:10087000DA6A020ED9266251DE18D8A442EF04F0DB
:1008800044EF04F04CEF04F04A50D96EDA6A040EDB
:10089000D926DF6AC2EF04F04A50D96EDA6A040E34
:1008A000D926DF2A4A50D96EDA6A050ED9264A506F
:1008B000E16EE26A040EE126DE50E65CD8A063EF4A
:1008C00004F065EF04F0C2EF04F04A50D96EDA6A22
:1008D000020ED9264A50E16EE26A030EE126DFCF0E
:1008E000E7FF4A50D96EDA6A020ED92662C0DFFFEE
:1008F0004A50D96EDA6A030ED926DF50D8A483EFA6
:1009000004F085EF04F09BEF04F04A50D96EDA6AE8
:10091000020ED926DE04D8A490EF04F092EF04F082
:100920009BEF04F04A50D96EDA6A060ED926010E02
:10093000DF6EBCEF04F04A50D96EDA6A030ED92696
:10094000DE04D8A4A6EF04F0A8EF04F0BCEF04F096
:100950004A50D96EDA6A020ED926DF50D8A4B3EF16
:1009600004F0B5EF04F0BCEF04F04A50D96EDA6A37
:10097000060ED926020EDF6E4A50D96EDA6A040ED0
:10098000D926DF6A1200496A45BECBEF04F0C9EFF1
:1009900004F0D1EF04F0446C451ED8B0452A010E96
:1009A000496E47BED8EF04F0D6EF04F0DCEF04F058
:1009B000466C471ED8B0472A46504710D8B4E3EFDC
:1009C00004F0E5EF04F009EF05F0010E486EEDEFDD
:1009D00004F0D89046364736482A47AEF2EF04F086
:1009E000F4EF04F0E9EF04F04650445C47504558FA
:1009F000D8A0FDEF04F0FFEF04F003EF05F0465040
:100A0000445E4750455AD89047324632482EF4EF5C
:100A100004F04950D8B40FEF05F011EF05F015EFD1
:100A200005F0446C451ED8B0452A44C044F045C08A
:100A300045F012004504D8A420EF05F022EF05F0A0
:100A400044EF05F04450D96EDA6A060ED926DF501D
:100A5000466E010E476E462A30EF05F0D8904736B5
:100A6000462E2EEF05F04450D96EDA6A040ED926D0
:100A7000DECF48F0DDCF49F048C0D9FF49C0DAFFEA
:100A80004750DF1267EF05F04450D96EDA6A060E60
:100A9000D926DF50466E010E476E462A52EF05F00A
:100AA000D8904736462E50EF05F04750FF0A486E63
:100AB0004450D96EDA6A040ED926DECF49F0DDCF74
:100AC0004AF049C0D9FF4AC0DAFF4850DF16120089
:100AD0004504D8A46EEF05F070EF05F092EF05F035
:100AE0004450D96EDA6A060ED926DF50466E010EE2
:100AF000476E462A7EEF05F0D8904736462E7CEFAB
:100B000005F04450D96EDA6A020ED926DECF48F0DD
:100B1000DDCF49F048C0D9FF49C0DAFF4750DF12A6
:100B2000B5EF05F04450D96EDA6A060ED926DF50CB
:100B3000466E010E476E462AA0EF05F0D890473664
:100B4000462E9EEF05F04750FF0A486E4450D96E7E
:100B5000DA6A020ED926DECF49F0DDCF4AF049C06D
:100B6000D9FF4AC0DAFF4850DF1612003D6AEAEFAB
:100B700005F03D50070DF350060FD96EDA6ADE2AF4
:100B8000000EDD223D50070DF350040FD96EDA6AD6
:100B90003D50070DF350060FE16EE26ADE50E65C51
:100BA000DE50E658D8A0D7EF05F0D9EF05F0E9EF11
:100BB00005F03D50070DF350060FD96EDA6ADE6A74
:100BC000DD6A3D50070DF350080FD96EDA6A010E49
:100BD000DF6E3D2A31503D5CD8A0F1EF05F0F3EF18
:100BE00005F0B9EF05F0120000016A6B21EF06F085
:100BF0006A51070DF350080FD96EDA6ADE04D8A4E3
:100C000004EF06F006EF06F01FEF06F06A51070D3D
:100C1000F350080FD96EDA6ADF6A6A51070DF35094
:100C2000020FD96EDA6A02D81FEF06F00500FA6EDD
:100C3000DE50FD6EDE50FE6EFF6AFA5012000001BB
:100C40006A2B31506A5DD8A028EF06F02AEF06F033
:100C5000F8EF05F0120000016051D96EDA6A020E59
:100C6000D92661C0DFFF6051D96EDA6A010ED9263C
:100C7000DE04D8A43EEF06F040EF06F04DEF06F09C
:100C80006105D8B446EF06F049EF06F0010E4AEFD1
:100C900006F0000E636F58EF06F06105D8A453EF1D
:100CA00006F056EF06F0010E57EF06F0000E636FE8
:100CB0006051D96EDA6ADF50446E63C045F01AECB9
:100CC00005F0120000016051D96EDA6A61C0DFFFE1
:100CD0006051D96EDA6A010ED92662C0DFFF605119
:100CE000D96EDA6A020ED926DF6A6051D96EDA6AE5
:100CF000030ED926DF6A6051D96EDA6A040ED9264E
:100D0000DF6A6051D96EDA6A050ED92663C0DFFF4B
:100D10006051D96EDA6A060ED926DF6A6051D96E43
:100D2000DA6ADF50446E010E456E68EC05F0120081
:100D30001E0EF66E110EF76E000EF86E00EE6BF0E2
:100D400010EE07F00900F5CFEEFFE550E150FAE1B3
:100D5000000EF66E110EF76E000EF86E00EE4BF000
:100D600010EE0AF00900F5CFEEFFE550E150FAE190
:100D700000EE02F0370EEE6AE806FDE10190019206
:100D8000000EF86E0001C5EF06F0320E0001606F34
:100D90004B0E616F000E626F030E636F62EC06F024
:100DA0007AEC08F04CEC07F06DEC08F096EC08F0EB
:100DB00093EC08F03C0E446E0F0E456E476A0A0E27
:100DC000466E1FEC07F00E0E446E100E456E476A1D
:100DD000050E466E1FEC07F0F4EC05F0ECEF06F0A4
:100DE00007EF00F04450D96EDA6ADECF45F0DDCF70
:100DF00046F045C0D9FF46C0DAFFDF50476E445089
:100E0000D96EDA6A060ED926DF50486E010E496E99
:100E1000482A0DEF07F0D8904936482E0BEF07F01F
:100E2000495047140009D8B418EF07F01AEF07F03B
:100E30001DEF07F0010E1EEF07F0000E1200050E69
:100E4000316025EF07F027EF07F04AEF07F0315048
:100E5000070DF350020FD96EDA6A44C0DEFF45C0B9
:100E6000DDFF3150070DF350040FD96EDA6A46C02A
:100E7000DEFF47C0DDFF3150070DF350060FD96E7E
:100E8000DA6ADE6ADD6A3150070DF350080FD96E59
:100E9000DA6ADF6A312A1200446A4450070DF350BF
:100EA000020FD96EDA6ADE6ADD6A4450070DF3502C
:100EB000040FD96EDA6ADE6ADD6A4450070DF3501A
:100EC000060FD96EDA6ADE6ADD6A4450070DF35008
:100ED000080FD96EDA6ADF6A442A040E446473EF9D
:100EE00007F075EF07F04DEF07F0316A12000600CA
:100EF000E1CF3EF0E2CF3FF0D9CF40F0DACF41F082
:100F0000F3CF42F0F4CF43F0F2A489EF07F08BEF78
:100F100007F090EF07F08AEC08F0B6EC05F0F294D9
:100F200043C0F4FF42C0F3FF41C0DAFF40C0D9FF25
:100F30003FC0E2FF3EC0E1FF01921100320E4A6E57
:100F400001EC04F0320E446E5EEC08F00001636FB9
:100F50006305D8A4AEEF07F0B0EF07F0B5EF07F0E8
:100F6000010EC2EC07F0C1EF07F0020E6319D8A41E
:100F7000BCEF07F0BEEF07F0C1EF07F0020EC2ECC6
:100F800007F012000001606F010E3024446E456AC4
:100F9000000E4522476A0A0E466EC3EC04F0445028
:100FA0000001616F2F506119D8A4D9EF07F0DBEF72
:100FB00007F0DDEF07F0E5EF07F03050250FD96EB1
:100FC000DA6A60C0DFFF61C030F012002F503018C5
:100FD000D8A4EDEF07F0EFEF07F0F2EF07F0000E07
:100FE00006EF08F02F50250FD96EDA6ADF504A6EEF
:100FF000010E2F24446E456A000E4522476A0A0EF0
:10100000466EC3EC04F044502F6E4A501200E6ECDA
:1010100007F00001686F13EF08F0520E646F42ECA6
:1010200008F024EF08F06851666F676B6751000A9B
:10103000D8B41DEF08F024EF08F06651020AD8B4C6
:101040000DEF08F024EF08F0120000016451D96E92
:10105000DA6ADF50446E000E456E68EC05F0000160
:101060006451D96EDA6A020ED926DF6A64C060F074
:101070006451D96EDA6A020ED926DF50616F2BEC0B
:1010800006F0120000016451D96EDA6A020ED92608
:10109000DF50656F6505D8A450EF08F052EF08F0F7
:1010A00055EF08F0656B57EF08F0010E656F64C0EF
:1010B00060F065C061F02BEC06F012004450D96E70
:1010C000DA6A060ED926DF50456E4450D96EDA6AC8
:1010D000060ED926DF6A45501200D56AD59CD59AEE
:1010E000D596D550F80B0109D56E85EC08F0F29431
:1010F000F28A1200520E0001646F25EC08F0120013
:10110000810F930F8A0F006B0100FB0ED76E1E0E2E
:10111000D66E1200FB0ED76E1E0ED66E1200830F17
:05112000950F8C0F008B
:0A112600F28EF28C1200D58E12003A
:020000040030CA
:08000000000C1E1EFF8181FFB0
:00000001FF
