:04000000FEEF3FF0E0
:1008000000001704D8A407EF04F009EF04F02BEF61
:1008100004F01650D96EDA6A060ED926DF50186E2B
:10082000010E196E182A17EF04F0D8901936182EF9
:1008300015EF04F01650D96EDA6A040ED926DECF11
:100840001AF0DDCF1BF01AC0D9FF1BC0DAFF195018
:10085000DF124EEF04F01650D96EDA6A060ED92672
:10086000DF50186E010E196E182A39EF04F0D89077
:100870001936182E37EF04F01950FF0A1A6E165069
:10088000D96EDA6A040ED926DECF1BF0DDCF1CF05C
:100890001BC0D9FF1CC0DAFF1A50DF161200170464
:1008A000D8A455EF04F057EF04F079EF04F0165098
:1008B000D96EDA6A060ED926DF50186E010E196E4F
:1008C000182A65EF04F0D8901936182E63EF04F05B
:1008D0001650D96EDA6A020ED926DECF1AF0DDCFB5
:1008E0001BF01AC0D9FF1BC0DAFF1950DF129CEFB2
:1008F00004F01650D96EDA6A060ED926DF50186E4B
:10090000010E196E182A87EF04F0D8901936182EA8
:1009100085EF04F01950FF0A1A6E1650D96EDA6A84
:10092000020ED926DECF1BF0DDCF1CF01BC0D9FF95
:100930001CC0DAFF1A50DF1612000F0E166E000EE2
:10094000176E4FEC04F0080E166E000E176E4FEC8B
:1009500004F0010E166E010E176E4FEC04F00F0E30
:10096000166E0AEC05F00D0E1E6EAF0E1D6EB60E65
:10097000E82EFED71D2EFCD71E2EFAD700D0010E72
:10098000166EDDEC04F0E806D8A4C9EF04F0CBEF56
:1009900004F0D3EF04F0080E166E010E176E01EC92
:1009A00004F0AFEF04F0080E166E000E176E01ECA7
:1009B00004F0AFEF04F0FEEF3FF01650D96EDA6AA4
:1009C000DECF17F0DDCF18F017C0D9FF18C0DAFF5F
:1009D000DF50196E1650D96EDA6A060ED926DF502E
:1009E0001A6E010E1B6E1A2AF8EF04F0D8901B360F
:1009F0001A2EF6EF04F01B5019140009D8B403EFB7
:100A000005F005EF05F008EF05F0010E09EF05F020
:100A1000000E12001650D96EDA6A060ED926DF5083
:100A2000176E010E186E172A18EF05F0D8901836B9
:100A3000172E16EF05F01650D96EDA6A040ED92675
:100A4000DECF19F0DDCF1AF019C0D9FF1AC0DAFFD6
:100A50001850DF1A12007C0EF66E0A0EF76E000EAA
:100A6000F86E00EE01F010EE15F00900F5CFEEFF84
:100A7000E550E150FAE100019DEF04F0810F930F82
:100A80008A0F00830F950F8C0F01830F950F8C0F2A
:010A90000065
:047FFC002BEF05F072
:020000040030CA
:08000000000C1E1EFF8181FFB0
:00000001FF
