:04000000FEEF3FF0E0
:100800000000230E316E6BEC05F0200E316E6BECA8
:1008100005F01D0E316E6BEC05F0010E266E010E1B
:10082000276E9FEC04F0230E316E50EC05F00D0E98
:10083000346EAF0E336EB60EE82EFED7332EFCD7D5
:10084000342EFAD700D0200E316E50EC05F00D0E8C
:10085000346EAF0E336EB60EE82EFED7332EFCD7B5
:10086000342EFAD700D0010E266E23EC05F00009D5
:10087000D8A43DEF04F03FEF04F047EF04F01D0E65
:100880002D6E000E2E6EEDEC04F013EF04F01D0E35
:100890002D6E010E2E6EEDEC04F013EF04F0FEEF62
:1008A0003FF02704D8A457EF04F059EF04F07BEF92
:1008B00004F02650D96EDA6A060ED926DF50286E6B
:1008C000010E296E282A67EF04F0D8902936282EC9
:1008D00065EF04F02650D96EDA6A040ED926DECF11
:1008E0002AF0DDCF2BF02AC0D9FF2BC0DAFF295028
:1008F000DF129EEF04F02650D96EDA6A060ED92672
:10090000DF50286E010E296E282A89EF04F0D89056
:100910002936282E87EF04F02950FF0A2A6E265028
:10092000D96EDA6A040ED926DECF2BF0DDCF2CF09B
:100930002BC0D9FF2CC0DAFF2A50DF161200270483
:10094000D8A4A5EF04F0A7EF04F0C9EF04F02650F7
:10095000D96EDA6A060ED926DF50286E010E296E8E
:10096000282AB5EF04F0D8902936282EB3EF04F0EA
:100970002650D96EDA6A020ED926DECF2AF0DDCFF4
:100980002BF02AC0D9FF2BC0DAFF2950DF12ECEF81
:1009900004F02650D96EDA6A060ED926DF50286E8A
:1009A000010E296E282AD7EF04F0D8902936282E78
:1009B000D5EF04F02950FF0A2A6E2650D96EDA6A64
:1009C000020ED926DECF2BF0DDCF2CF02BC0D9FFC5
:1009D0002CC0DAFF2A50DF1612002D50D96EDA6AC9
:1009E000020ED9262EC0DFFF2D50D96EDA6A010E15
:1009F000D926DE04D8A4FFEF04F001EF05F00EEFD6
:100A000005F02E04D8B407EF05F00AEF05F0010E4B
:100A10000BEF05F0000E306E19EF05F02E04D8A490
:100A200014EF05F017EF05F0010E18EF05F0000EBA
:100A3000306E2D50D96EDA6ADF50266E30C027F046
:100A400051EC04F012002650D96EDA6ADECF27F09E
:100A5000DDCF28F027C0D9FF28C0DAFFDF50296E8C
:100A60002650D96EDA6A060ED926DF502A6E010E9C
:100A70002B6E2A2A3EEF05F0D8902B362A2E3CEF1B
:100A800005F02B5029140009D8B449EF05F04BEFBD
:100A900005F04EEF05F0010E4FEF05F0000E1200CD
:100AA0003150D96EDA6A020ED926DF50326E320426
:100AB000D8A45DEF05F05FEF05F062EF05F0326A54
:100AC00064EF05F0010E326E31C02DF032C02EF011
:100AD000EDEC04F012003150D96EDA6ADF50266E68
:100AE000000E276E9FEC04F03150D96EDA6A020EC8
:100AF000D926DF6A31C02DF03150D96EDA6A020E84
:100B0000D926DF502E6EEDEC04F01200320EF66E98
:100B10000B0EF76E000EF86E00EE01F010EE25F0F1
:100B20000900F5CFEEFFE550E150FAE1000101EFD9
:100B300004F0810F930F8A0F00830F950F8C0F0223
:100B4000830F950F8C0F01830F950F8C0F000801F9
:070B5000000F000016010078
:047FFC0086EF05F017
:020000040030CA
:08000000000C1E1EFF8181FFB0
:00000001FF
